:020000040800F2
:1000000018320020BD010008C5010008C701000822
:10001000C9010008CB010008CD0100080000000064
:10002000000000000000000000000000810800083F
:10003000D10100080000000001080008D1090008F3
:10004000D7010008D7010008D7010008D701000830
:10005000D7010008D7010008D7010008C503000830
:10006000D7010008D7010008D7010008D701000810
:10007000D7010008D7010008D7010008D701000800
:10008000D7010008D7010008D7010008D7010008F0
:10009000D7010008D7010008D7010008D7010008E0
:1000A000D7010008D7010008D7010008D7010008D0
:1000B000D7010008D7010008D7010008D7010008C0
:1000C000D7010008D7010008D7010008D7010008B0
:1000D000D7010008D7010008D7010008D7010008A0
:1000E000D7010008D7010008D701000800F002F886
:1000F00000F050F814A696E8000CB244B344DA4578
:1001000001D100F047F8BAE80F000FA696E83000DA
:10011000A5EB040504EB0607AAEB0704A7F101070A
:100120004FEA15154FEA3414A4F10104AC4201D38F
:1001300000F030F813F0010F18BFFB1A43F0010371
:1001400000F001F8DBE71847CC330000EC33000087
:10015000103A24BF78C878C1FAD8520724BF30C8F3
:1001600030C144BF04680C60704700007047000055
:100170000023002400250026103A28BF78C1FBD8B0
:10018000520728BF30C148BF0B6070471FB51FBD65
:1001900010B510BD00F0DBF8114603B400F0F6FC1A
:1001A00003BCFFF7F3FF00F0D9FD00F0F5F803B44E
:1001B000FFF7EEFF03BC00F0FDF8000009488047A0
:1001C00009480047FEE7FEE7FEE7FEE7FEE7FEE739
:1001D000FEE7FEE7FEE7FEE704480549054A064B51
:1001E00070470000F1090008ED000008182C0020FD
:1001F00018320020182E0020182E0020032A40F26A
:10020000308010F0030C00F0158011F8013BBCF1B8
:10021000020F624498BF11F801CB00F8013B38BFD0
:1002200011F8013BA2F1040298BF00F801CB38BFDE
:1002300000F8013B11F0030300F03080083AC0F0F1
:10024000088051F8043B083A51F804CBA0E80810A4
:10025000F5E7121D5CBF51F8043B40F8043BAFF3D7
:100260000080D20724BF11F8013B11F801CB48BF31
:1002700011F8012B24BF00F8013B00F801CB48BF67
:1002800000F8012B704702F0FF0343EA032242EA21
:10029000024200F037B870477047704710B5203AF7
:1002A000C0F00B80B1E81850A0E81850B1E8185021
:1002B000A0E81850203ABFF4F5AF5FEA027C24BFF3
:1002C000B1E81850A0E8185044BF18C918C0BDE8DC
:1002D00010405FEA827C24BF51F8043B40F8043BA5
:1002E00008BF7047D20728BF31F8023B48BF11F85A
:1002F000012B28BF20F8023B48BF00F8012B7047B4
:100300004FF0000200B5134694469646203922BFAE
:10031000A0E80C50A0E80C50B1F12001BFF4F7AFF9
:10032000090728BFA0E80C5048BF0CC05DF804EBDB
:10033000890028BF40F8042B08BF704748BF20F849
:10034000022B11F0804F18BF00F8012B7047754643
:1003500000F02CF8AE4605006946534620F0070031
:10036000854618B020B5FFF737FFBDE820404FF0B5
:1003700000064FF000074FF000084FF0000BAC46AE
:10038000ACE8C009ACE8C009ACE8C009ACE8C009F9
:1003900021F007018D46704710B50446AFF3008089
:1003A0002046BDE81040FFF702BF0000004870473C
:1003B0000800002001491820ABBEFEE7260002001D
:1003C0007047000080B582B00020019001208DF8B8
:1003D0000300022000F02CF878B1FFE740F26C0037
:1003E000C2F2000000680DF1030101AA002302F02F
:1003F00069FA022000F012F8FFE7019860B1FFE708
:100400004EF60451CEF200014FF080500860BFF369
:100410004F8FBFF36F8FFFE702B080BD81B00090B8
:10042000009840F21441C4F20101086001B0704725
:1004300083B0029000208DF80700009040F2004049
:10044000C4F20100006802990840009040F2144094
:10045000C4F2010000680299084207D0FFE7009843
:1004600020B1FFE701208DF8070003E000208DF8A0
:100470000700FFE79DF8070003B0704782B00190C6
:100480000020009040F20040C4F20100009001986A
:100490008079002859D0FFE70198026840F20041B6
:1004A000C4F201010868904308600198026840F2B4
:1004B0000441C4F201010868904308600198017981
:1004C0000098084400900198026800990868104359
:1004D00008600198026840F20841C4F2010108680E
:1004E000904308600198026840F20C41C4F2010197
:1004F00008689043086001984079102813D1FFE7FD
:100500000198026840F20841C4F2010108681043F2
:1005100008600198026840F20C41C4F201010868C9
:100520001043086010E040F20040C4F20100009067
:100530000198417900980844009001980268009958
:10054000086810430860FFE70BE001980179009804
:100550000844009001980268009908689043086078
:10056000FFE702B07047000082B08DF807008DF8F9
:100570000610002000909DF8060000F003008100A6
:100580000F2088400090009B9DF8060000F0FC01C1
:100590000822C4F201028858984388509DF8071039
:1005A0009DF8060000F003039B0001FA03F300F03E
:1005B000FC0188581843885002B0704788B00790F3
:1005C0000691002005900490039002900190009005
:1005D0000698C07800F00F0005900698C078C00615
:1005E000002806D5FFE7069881780598084305900E
:1005F000FFE70698007800284BD0FFE707980068CF
:10060000019000200390FFE7039807283DD8FFE7FB
:1006100003990120884002900698008802990840BA
:1006200004900498029988422AD1FFE70398800039
:10063000029002990F208840009000990198884309
:1006400001900598029900FA01F101980843019080
:100650000698C078282806D1FFE703990120884032
:10066000079948610BE00698C078482806D1FFE753
:1006700003990120884007990861FFE7FFE7FFE73A
:10068000FFE7039801300390BEE7019807990860DF
:10069000FFE706980088B0F5807F50DBFFE70798FA
:1006A0004068019000200390FFE70398072842D894
:1006B000FFE7039800F108010120884002900698A6
:1006C00000880299084004900498029988422DD12C
:1006D000FFE703988000029002990F208840009065
:1006E00000990198884301900598029900FA01F158
:1006F0000198084301900698C078282808D1FFE7A0
:10070000039800F108010120884007994861FFE73C
:100710000698C078482808D1FFE7039800F108013F
:100720000120884007990861FFE7FFE7FFE703988A
:1007300001300390B9E7019807994860FFE708B0D6
:100740007047000082B00190ADF80210BDF80200C1
:100750000199486102B0704784B003900020029074
:1007600001900F2000900398C078B8B3FFE74EF6D1
:100770000C50CEF200000068C043C0F3022002908B
:100780000298C0F10400019000980299C8400090BE
:1007900003984078019988400290039880780099E6
:1007A00001400298084302900298000102900298CA
:1007B000039909784EF20042CEF200028854039861
:1007C000027802F01F01012088401C2101EAD201B9
:1007D0004EF20012CEF2000288500EE0039802782A
:1007E00002F01F01012088401C2101EAD2014EF2D3
:1007F0008012CEF200028850FFE704B0704700007C
:10080000EFF30980BFF36F8F0D4B1A6820E9F00FEB
:1008100010602DE908404FF0100080F3118801F0BE
:100820000BFE4FF0000080F31188BDE80840196806
:100830000868B0E8F00F80F30988BFF36F8F704746
:10084000C802002082B001908DF803109DF80300CB
:1008500048B1FFE7019A41F21801C4F202010868A9
:100860001043086008E0019A41F21801C4F2020145
:10087000086890430860FFE702B07047000000007E
:10088000074B19680868B0E8F00F80F30988BFF3D8
:100890006F8F4FF0000080F311884EF00D0E7047FF
:1008A000C802002080B500F001F880BD84B00020AF
:1008B0000390029041F20001C4F20201086840F482
:1008C00080300860FFE741F20000C4F202000068D7
:1008D00000F400300290039801300390FFE7029982
:1008E0000020019039B9FFE70398B0F5A06018BF68
:1008F00001200190FFE70198C0070028E3D1FFE73E
:1009000041F20000C4F2020000688003002803D511
:10091000FFE70120029002E000200290FFE702982A
:10092000012851D1FFE742F20001C4F20201086838
:1009300040F010000860086820F0070008600868B0
:1009400040F00200086041F20401C4F2020100918B
:100950000868086008680860086840F480600860FB
:10096000086820F47C100860086840F4E81008600B
:1009700041F20001C4F20201086840F08070086092
:10098000FFE741F20000C4F2020000688001002885
:1009900001D4FFE7F5E741F20401C4F2020108685F
:1009A00020F003000860086840F002000860FFE7DC
:1009B00041F20400C4F20200006800F00C000828B4
:1009C00001D0FFE7F4E700E0FFE704B07047000064
:1009D00080B54EF21000CEF20000006802F020FA5E
:1009E000012803D0FFE701F0C9FDFFE780BD00004B
:1009F00080B541F20002C4F20202106840F001002A
:100A0000106041F20401C4F2020108680023CFF62D
:100A1000FF031840086010684FF6FF73CFF6F663C7
:100A200018401060106820F480201060086820F4DE
:100A3000FE00086041F20801C4F202014FF41F00F9
:100A40000860FFF72FFF4EF60851CEF200014FF07D
:100A50000060086080BD000080B582B0019000F0A9
:100A6000EFF938B1FFE7019800684FF0FF3102F06D
:100A700033F8FFE702B080BD80B582B001900198E5
:100A8000006801F045FB00200090FFE70098042873
:100A90001AD8FFE701980068009A40F20021C2F2DC
:100AA000000151F82210884209D1FFE7009A40F274
:100AB0000021C2F20001002041F8220004E0FFE71B
:100AC000009801300090E1E702B080BD80B584B0AD
:100AD00002900299002008600190FFE70198042825
:100AE0002BD8FFE7019940F20020C2F2000050F835
:100AF0002100E8B9FFE7019800EB800140F27000A7
:100B0000C2F2000000EB01110120009001F068FD2D
:100B100002460098019B40F20021C2F2000141F818
:100B20002320019A51F82210029A1160039018E0D4
:100B3000FFE7019801300190D0E700F081F930B172
:100B4000FFE7012001F038FD02990860FFE70298F5
:100B5000006818B9FFE70020039002E0012003902D
:100B6000FFE7039804B080BD80B582B0019000F02B
:100B700067F940B1FFE701980068002319461A465B
:100B800001F0EAFDFFE702B080BD00007047000001
:100B900080B582B001904FF496700090FFE741F26B
:100BA0000C01C4F20101086880F4005008604FF4A1
:100BB000967001F0F1FAF2E780B588B00520019057
:100BC00001210391FFF73EFE02200090ADF81C00CA
:100BD00048208DF81F0040F60000C4F2010007A96C
:100BE000FFF7ECFC039900200290FFF7BDFC009A90
:100BF0000299039805928DF818100C218DF81910A0
:100C00008DF81A0005A8FFF739FC019A029903989C
:100C100007238DF810308DF811208DF812108DF803
:100C2000130004A8FFF798FD08B080BD80B582B01E
:100C3000019000228DF8032040F21820C2F200003B
:100C400000680DF10301022301F086FDFFE740F289
:100C50006C00C2F2000000680DF102014FF0FF329B
:100C600001F090FE012816D1FFE79DF80300B0FACD
:100C700080F040098DF8030040F21820C2F2000015
:100C800000680DF103010022022301F065FDC82078
:100C900001F082FAFFE7DAE780B586B0142001217F
:100CA0000191FFF7CFFD0198ADF8140010200290DC
:100CB0008DF81700032003908DF8160040F6000011
:100CC000C4F2010005A90491FFF778FC029A039889
:100CD00004994FF40053ADF814308DF817208DF8B7
:100CE000160041F20000C4F20100FFF767FC06B0F5
:100CF00080BD000080B584B00390C8200290002021
:100D00008DF80700FFE740F21820C2F200000068EB
:100D10000DF10601002201F035FE012805D1FFE7A3
:100D20009DF806008DF80700FFE79DF8070048B121
:100D3000FFE740F60C01C4F20101086880F00100F1
:100D4000086007E040F60000C4F201000121FFF74F
:100D5000F9FCFFE7C82001F01FFAD4E780B58AB09C
:100D6000002007900990FFF797FFFFF725FF079AEC
:100D700001210691084601F04DFC0699079A40F2C0
:100D80001823C2F2000308931860084601F042FCE1
:100D90000146089840F26C02C2F20002116000683D
:100DA00038B1FFE740F26C00C2F20000006810B9F1
:100DB000FFE7FFE7FEE740F21C20C2F200006946B1
:100DC000486001200590086040F6F540C0F600003C
:100DD00043F2E841C0F6000180220392002304930D
:100DE00001F094FF039A049B40F21420C2F2000029
:100DF000694648600220086040F62D40C0F60000B9
:100E000043F2FC41C0F6000101F080FF039A049B0D
:100E1000059840F2680CC2F2000C6946C1F804C0A3
:100E2000086040F69130C0F6000043F2F141C0F690
:100E3000000101F06BFF01F095FAFFE7FEE700000B
:100E400080B582B040F22020C2F20000007880B964
:100E5000FFE701F0E5FF012808D0FFE740F220217D
:100E6000C2F2000101200870019005E0002001900D
:100E700002E001200190FFE7019802B080BD000070
:100E800080B584B00390029142F60840C2F200009F
:100E90000068009040F2C820C2F2000000680430F0
:100EA00000F0DCFF08B9FFE700E0FFE7039801303E
:100EB00080B9FFE7029868B1FFE740F2C820C2F2AC
:100EC00000000068011D42F6E030C2F2000001F0AF
:100ED00071F83DE00098039908440190019840F2B0
:100EE000C821C2F20001096848600198009988424F
:100EF0000ED2FFE740F2D820C2F20000006840F2B4
:100F0000C821C2F200010968043101F01DF81EE099
:100F100040F2D020C2F20000006840F2C821C2F2C4
:100F200000010968043101F00FF8019842F6AC3174
:100F3000C2F200010968884207D2FFE7019842F631
:100F4000AC31C2F20001086000E0FFE7FFE7FFE715
:100F500004B080BD80B582B0019001F049F842F242
:100F60004071C2F2000108680130086040F2C820F8
:100F7000C2F20000006898B9FFE7019840F2C8216A
:100F8000C2F20001086042F24070C2F20000006844
:100F9000012803D1FFE700F0EDFA00E0FFE71CE0D5
:100FA00042F6D430C2F200000068A0B9FFE740F278
:100FB000C820C2F200000068C06A0199C96A88426C
:100FC00007D8FFE7019840F2C821C2F2000108608B
:100FD00000E0FFE700E0FFE7FFE742F24C70C2F2FB
:100FE00000000168013101600068019948640198BE
:100FF000C06A42F25071C2F200010968884208D901
:10100000FFE70198C06A42F25071C2F20001086025
:10101000FFE70199C86A00EB800240F2E020C2F2CB
:10102000000000EB8200043100F0C4FF00F0F8FF84
:1010300042F6D430C2F200000068C8B1FFE740F2C7
:10104000C820C2F200000068C06A0199C96A8842DB
:101050000CD2FFE74EF60451CEF200014FF0805063
:101060000860BFF34F8FBFF36F8F00E0FFE700E032
:10107000FFE702B080BD000080B584B000F0B8FF8B
:1010800042F60C40C2F20000006878BBFFE742F66F
:101090004C30C2F20000029000F036FF42F66030A1
:1010A000C2F20000039000F02FFF0299039840F273
:1010B000CC22C2F20002116040F2DC21C2F2000137
:1010C000086069460020086040F22122C2F2000256
:1010D00040F27423C2F200030520102101F0C6FA89
:1010E00042F60C41C2F20001086000E0FFE700F0A8
:1010F00097FF04B080BD000080B582B0FFE742F2E8
:101100004470C2F20000006808B3FFE700F070FF0F
:1011100042F6F430C2F20000C068C0680190019845
:10112000043000F09BFE42F24071C2F200010868F8
:101130000138086042F24471C2F2000108680138C7
:10114000086000F06DFF019800F08CF8D7E702B05E
:1011500080BD000080B582B0019000910198006CC4
:10116000B8B1FFE70199C8680A6C1044C8600198DB
:101170008168C068884204D3FFE701990868C860A5
:1011800000E0FFE70098019AD168126CFFF736F88B
:10119000FFE702B080BD000080B586B005900491E5
:1011A0000392002002900598806B01900598006CD6
:1011B00078B9FFE70598006848B9FFE705988068A7
:1011C00001F024FF029005990020886000E0FFE70D
:1011D00041E00398B8B9FFE7059A04995068126C8A
:1011E000FFF70CF8059948680A6C104448600599A7
:1011F00048688968884204D3FFE705990868486011
:1012000000E0FFE726E0059A0499D068126CFEF72B
:10121000F5FF0599C8680A6C801AC86005980168CE
:10122000C068884206D2FFE7059988680A6C801A70
:10123000C86000E0FFE70398022809D1FFE70198A2
:1012400020B1FFE701980138019000E0FFE700E0DE
:10125000FFE7FFE7FFE701980130059988630298EF
:1012600006B080BD80B582B00190019890F8590019
:1012700040B9FFE70198006B00F0E6FE019800F02E
:10128000E3FE0BE0019890F85900012804D1FFE734
:10129000019800F0D9FE00E0FFE7FFE702B080BD53
:1012A00082B001900198406A38B1FFE70198006B65
:1012B0000068C0F13800009002E000200090FFE7D5
:1012C000009802B07047000082B0019040F2CC203C
:1012D000C2F2000000680068B0FA80F0400901998D
:1012E00008600198006848B9FFE740F2CC20C2F2DC
:1012F00000000068C0680068009002E000200090D4
:10130000FFE7009802B0704784B04FF4005000909F
:1013100040F24070C2F2000001909DF804004007C6
:1013200088B1FFE7019807300190019820F007008D
:101330000190019A40F24071C2F200010098891AAE
:1013400008440090FFE701980290029942F6D830D5
:10135000C2F200000160002141600298009A10442E
:101360000190019808380190019820F00700019041
:10137000019A40F2D420C2F200000260026851607B
:1013800002681160029903910199039A891A5160C8
:101390000068039908600398406842F6A831C2F2D9
:1013A000000108600398406842F6A031C2F20001D3
:1013B000086042F67431C2F200014FF0004008604C
:1013C00004B0704780B582B00190FFE7FFF794FE4C
:1013D00040F2E020C2F20000006802280CD3FFE7D0
:1013E0004EF60451CEF200014FF080500860BFF37A
:1013F0004F8FBFF36F8F00E0FFE7E7E780B582B064
:101400000190019868B1FFE701980023836001987B
:1014100003600198C360019819461A4601F09CF9CF
:1014200000E0FFE702B080BD80B584B0DDF818C0F1
:101430000390029101928DF80330029818B9FFE7EA
:101440000698006003E0019806990860FFE703989A
:101450000699C8630298069908640698012101F06C
:101460002BF99DF80300069981F84C0004B080BD6B
:1014700080B588B0DDF834C0DDF830C0DDF82CC0B0
:10148000DDF828C007900691059204930C98006B34
:1014900005998900A522FEF7F6FE0C98006B0599C8
:1014A00000EB810004380390039820F007000390BC
:1014B0000698F8B1FFE700200290FFE702980F2896
:1014C00013D8FFE70698029A805C0C99114481F8C2
:1014D000340006980299405C08B9FFE705E0FFE791
:1014E000FFE7029801300290E8E70C99002081F8AC
:1014F000430004E00C99002081F83400FFE70A98CB
:10150000382803D3FFE737200A9000E0FFE70A9866
:101510000C99C8620A980C99C8640C990020019033
:1015200008650C98043000F007FD0C98183000F0A6
:1015300003FD01980C9909610A99C1F138010C9ACF
:1015400091610C9949620C9948650C9981F8580091
:1015500003980799049A00F059FC0C9908600B98BD
:1015600020B1FFE70C980B99086000E0FFE708B096
:1015700080BD000080B584B000200390FFE7039891
:10158000372810D8FFE7039800EB800140F2E020F5
:10159000C2F2000000EB810000F0B6FCFFE7039808
:1015A00001300390EBE742F67830C2F20000019080
:1015B00000F0AAFC42F68C30C2F20000029000F06B
:1015C000A3FC42F6C030C2F2000000F09DFC42F6DF
:1015D000F430C2F2000000F097FC42F6E030C2F2B4
:1015E000000000F091FC0199029840F2D022C2F272
:1015F0000002116040F2D821C2F20001086004B07C
:1016000080BD000083B0029042F6D830C2F20000E4
:101610000190FFE7019800680299884205D2FFE730
:10162000FFE7019800680190F4E7019800900098A6
:101630000199496808440299884209D1FFE7029854
:10164000426801994868104448600198029000E09F
:10165000FFE70298009000980299496808440199B0
:101660000968884220D1FFE70198006840F2D42140
:10167000C2F20001096888420DD0FFE701980068B6
:101680004268029948681044486001980068006800
:101690000299086007E040F2D420C2F2000000681E
:1016A00002990860FFE704E0019800680299086069
:1016B000FFE701980299884204D0FFE70298019958
:1016C000086000E0FFE703B07047000080B586B017
:1016D00005900491039202930020019004980599CB
:1016E00048600598006104980399884216D8FFE77E
:1016F00003980299401A05998969884203D3FFE744
:101700000120019009E040F2DC20C2F200000068F4
:101710000599043100F018FCFFE717E003980299DF
:10172000884208D2FFE704980299884203D3FFE772
:101730000120019009E040F2CC20C2F200000068D4
:101740000599043100F000FCFFE7FFE7019806B0BF
:1017500080BD000080B582B0019000F049FC019886
:10176000806B18B9FFE70120009002E00020009094
:10177000FFE700F055FC009802B080BD80B582B054
:10178000019000F035FC0198806B0199C96B88428B
:1017900003D1FFE70120009002E000200090FFE766
:1017A00000F03EFC009802B080BD000006480068D2
:1017B000006880F3088862B661B6BFF34F8FBFF34D
:1017C0006F8F00DF00BF000008ED00E080B586B03D
:1017D0000590049140F2CC20C2F200000068C0687D
:1017E000C06802900298043000F038FB029890F82C
:1017F00028004007002815D5FFE70298059B81695E
:101800001944049AFFF762FF50B1FFE70298059A66
:10181000694600230B60194601F01CFE039000E0AE
:10182000FFE707E0029991F8280000F0FE0081F838
:101830002800FFE70298016A884706B080BD0000D3
:1018400080B58CB0FFE742F60C40C2F200000068A1
:1018500008A9002201F096F8002800F08C80FFE72C
:101860000898B0F1FF3F09DCFFE708A804300390B7
:1018700003990A6848688968904700E0FFE708987C
:10188000002800F17780FFE70A98079007984069E1
:1018900028B1FFE70798043000F0E0FA00E0FFE726
:1018A00006A800F0DDF804900898029009285FD897
:1018B0000299DFE801F00505052F374905052F37A7
:1018C000079991F8280040F0010081F82800079856
:1018D000099B81691944049AFFF7F8FEC0B1FFE73C
:1018E0000798016A8847079890F828004007002861
:1018F0000CD5FFE70798099982690A4469460023D5
:101900000B60194601F0A6FD059000E0FFE700E03E
:10191000FFE72EE0079991F8280000F0FE0081F81B
:10192000280026E0079991F8280040F0010081F88E
:1019300028000998079988610798049B81691944D0
:101940001A46FFF7C3FE14E0079890F828008007B6
:10195000002804D4FFE7079800F076FB07E007991A
:1019600091F8280000F0FE0081F82800FFE700E071
:10197000FFE7FFE767E70CB080BD000080B584B0EB
:101980000390029100F050FD684600F069F8019064
:101990000098D8BBFFE7029860B9FFE70398019968
:1019A000884207D8FFE701F067FC03980199FFF729
:1019B0000DFF2AE0029858B1FFE740F2DC20C2F2A6
:1019C000000000680068B0FA80F040090290FFE76C
:1019D00042F60C40C2F2000000680399019A891A8D
:1019E000029A00F0A7FB01F047FC60B9FFE74EF652
:1019F0000451CEF200014FF080500860BFF34F8FCA
:101A0000BFF36F8F00E0FFE7FFE702E001F034FC77
:101A1000FFE704B080BD000081B040F2D020C2F2E8
:101A200000000068006840B9FFE742F6AC31C2F23E
:101A300000014FF0FF3008600FE040F2D020C2F20A
:101A400000000068C068C06800900098406842F6D6
:101A5000AC31C2F200010860FFE701B0704700003E
:101A600080B582B0019001F0F7F90090009840F243
:101A7000C421C2F200010968884206D2FFE700F0E3
:101A800011F801990120086003E001990020086025
:101A9000FFE7009840F2C421C2F2000108600098FC
:101AA00002B080BD80B586B0FFE740F2CC20C2F224
:101AB000000000680068002840D0FFE740F2CC201A
:101AC000C2F200000168C968096805910068C06831
:101AD000C06802900298043000F0C0F90298016AD0
:101AE0008847029890F828004007002824D5FFE78F
:101AF00005980299896908440490049805998842D8
:101B00000FD9FFE70498029948600298006140F2FB
:101B1000CC20C2F2000000680299043100F014FAEF
:101B200009E00298059A694600230B60194601F006
:101B300091FC0190FFE700E0FFE7B6E740F2CC221E
:101B4000C2F200021068039040F2DC21C2F20001F0
:101B5000086810600398086006B080BD82B000205D
:101B600000904FF0100080F31188BFF36F8FBFF328
:101B70004F8F0190FFE7009808B9FFE7FBE702B03D
:101B80007047000080B584B00390FFE701A8FFF71D
:101B90009BFB029002980199FFF7F0FEFFF750FEC1
:101BA000F4E7000080B582B0019000F021FA0198BE
:101BB00090F845008DF80300FFE79DF90300012828
:101BC00016DBFFE70198406A58B1FFE7019824301F
:101BD00001F0F8FA18B1FFE700F016FB00E0FFE7AC
:101BE00000E005E09DF8030001388DF80300E4E70C
:101BF0000199FF2081F8450000F012FA00F0F8F991
:101C0000019890F844008DF80200FFE79DF902006A
:101C1000012816DBFFE70198006980B1FFE7019812
:101C2000103001F0CFFA18B1FFE700F0EDFA00E054
:101C3000FFE79DF8020001388DF8020000E000E0A7
:101C4000E4E70199FF2081F8440000F0E9F902B0CF
:101C500080BD000080B586B005900020019000F0A6
:101C6000E3FB40F2D420C2F20000006818B9FFE79D
:101C7000FFF74AFB00E0FFE7059842F67431C2F235
:101C800000010968084240F0A580FFE7059880B18F
:101C9000FFE70598083005909DF81400400730B123
:101CA000FFE7059820F007000830059000E0FFE707
:101CB00000E0FFE70598002800F08A80FFE705981C
:101CC00042F6A031C2F200010968884200F2808029
:101CD000FFE742F6D830C2F200000390006804909B
:101CE000FFE704984168059A00209142009007D2CE
:101CF000FFE704980068002818BF01200090FFE764
:101D00000098C00730B1FFE704980390049800687A
:101D10000490E6E7049840F2D421C2F20001096879
:101D2000884253D0FFE70398006808300190049878
:101D3000006803990860049840680599401A1128C2
:101D400011D3FFE70498059908440290049840686D
:101D50000599401A029948600598049948600298CC
:101D6000FFF750FC00E0FFE70498426842F6A0301D
:101D7000C2F200000168891A0160006842F6A831C9
:101D8000C2F20001096888420BD2FFE742F6A03098
:101D9000C2F20000006842F6A831C2F200010860F9
:101DA00000E0FFE742F67430C2F2000002680499D6
:101DB00048681043486004990020086042F6B43136
:101DC000C2F2000108680130086000E0FFE700E0AF
:101DD000FFE700E0FFE701F04FFA019806B080BD91
:101DE00040F2C820C2F20000006848B1FFE740F2AC
:101DF000C820C2F200000168086D01300865FFE7E5
:101E000040F2C820C2F200000068704783B0029020
:101E10000191009202980438029002994FF080706C
:101E20000860029804380290019820F0010002999D
:101E30000860029804380290029941F65D30C0F6BD
:101E40000000086002981438029000980299086017
:101E5000029820380290029803B0704782B0019037
:101E60000198006900900198416880688860019934
:101E7000486889684860009840680199884205D19F
:101E8000FFE7019880680099486000E0FFE701994A
:101E9000002008610099086801380860009800680F
:101EA00002B0704783B0029001910092029942F60D
:101EB0005410C2F200000860019942F25470C2F25C
:101EC0000000086000998020086003B0704700009F
:101ED00083B0029001910092029942F6F020C2F282
:101EE00000000860019942F6B010C2F200000860DC
:101EF00000995020086003B07047000082B0019044
:101F0000009102B07047000081B00090009901F18B
:101F10000800486000994FF0FF308860009901F197
:101F20000800C860009901F10800086100990020CC
:101F3000086001B07047000081B000900099002057
:101F4000086101B07047000084B0039002910298CC
:101F5000006800900098013020B9FFE703980069FD
:101F6000019010E0039808300190FFE70198406865
:101F700000680099884205D8FFE7FFE701984068AC
:101F80000190F3E7FFE701984068029948600298E2
:101F900041688860019802998860029801994860B8
:101FA000039802990861039908680130086004B039
:101FB0007047000083B00290019102984068009041
:101FC000009801994860009880680199886001989C
:101FD0000099896848600198009988600298019981
:101FE0000861029908680130086003B0704700007A
:101FF00081B04FF0100080F31188BFF36F8FBFF3F3
:102000004F8F009040F20400C2F2000001680131DD
:1020100001600068012801D1FFE7FFE701B07047C8
:1020200081B040F20400C2F2000001680139016091
:10203000006830B9FFE700200090009880F3118815
:10204000FFE701B07047000080B584B003900398AB
:1020500002900398C0B3FFE70298083802900298F4
:1020600001900198406842F67431C2F2000109689B
:10207000084227D0FFE70198006808BBFFE742F657
:102080007430C2F2000002680199486890434860C9
:1020900000F0CAF90198426842F6A031C2F200018C
:1020A0000868104408600198FFF7ACFA42F6B831AE
:1020B000C2F2000108680130086001F0DDF800E0BC
:1020C000FFE700E0FFE7FFE704B080BD4EF210013C
:1020D000CEF20001002008604EF21802CEF200029B
:1020E000106040F20000C2F20000006844F6D352D3
:1020F000C1F26202A0FB02024FF0FF3000EB92102F
:102100004EF21402CEF20002106007200860704701
:1021100080B582B0019001980090009890F8460038
:1021200020B9FFE70098FFF78FFF00E0FFE702B05C
:1021300080BD000080B584B00390029101920398A5
:102140000090FFF755FF009890F94400013028B93E
:10215000FFE70099002081F84400FFE7009890F91C
:102160004500013028B9FFE70099002081F84500BB
:10217000FFE7FFF755FF0098806B38B9FFE700983D
:1021800024300299019A00F05BF800E0FFE7009824
:10219000FFF708FD04B080BD80B582B0019000203B
:1021A0000090019850B1FFE700F03EF9019800213E
:1021B000FEF766FE01F060F8009000E0FFE700988F
:1021C00060B9FFE74EF60451CEF200014FF08050A7
:1021D0000860BFF34F8FBFF36F8F00E0FFE702B0DF
:1021E00080BD000081B0009042F6B030C2F2000025
:1021F00000680099086042F60840C2F200000068DA
:102200000099486001B0704742F61441C2F20001E3
:10221000012008607047000080B582B001900091F5
:10222000019840F2C821C2F2000109681831FFF795
:102230008BFE00980121FEF723FE02B080BD000056
:1022400080B584B0039002910192039840F2C821B6
:10225000C2F2000109681831FFF7ACFE019820B105
:10226000FFE74FF0FF300290FFE702980199FEF779
:1022700007FE04B080BD000080B586B005900491D3
:1022800005980390012000900598002867D0FFE78B
:102290000398C06C0499884203D2FFE70498019028
:1022A00003E00398C06C0190FFE70398C06A0199AE
:1022B000884252D0FFE70398006D01284BD1FFE719
:1022C0000398C06A029001980399C8620398C07E7F
:1022D0000006002806D4FFE70198C0F138000399F2
:1022E000886100E0FFE703984069029901EB8102F1
:1022F00040F2E021C2F2000101EB8201884228D1C4
:10230000FFE703980430FFF7A9FD08B9FFE700E0F5
:10231000FFE70398C06A42F25071C2F200010968F7
:10232000884208D9FFE70398C06A42F25071C2F2AE
:1023300000010860FFE70399C86A00EB800240F2E1
:10234000E020C2F2000000EB82000431FFF732FE11
:1023500000E0FFE700E0FFE700E0FFE700E0FFE765
:1023600006B080BD80B58AB000200490079006902A
:1023700007A806A905AAFFF795FD049B059A0699EB
:10238000DDF81CC06846C0F808C04160036041F237
:10239000C530C0F6000043F20651C0F6000100F05F
:1023A00005FD014642F6A430C2F20000016000685B
:1023B00018B1FFE70120089002E000200890FFE735
:1023C0000898012804D1FFE701F008F8089000E020
:1023D000FFE70898012823D1FFE74FF0100080F3B2
:1023E0001188BFF36F8FBFF34F8F099042F6AC3166
:1023F000C2F200014FF0FF30086042F6D431C2F261
:1024000000010120086042F60841C2F200010020EC
:10241000086000F093F808B1FFE700E0FFE700E094
:10242000FFE70AB080BD000042F24871C2F200012D
:10243000086801300860704780B584B042F2487087
:10244000C2F20000006838B1FFE742F61441C2F260
:102450000001012008606FE042F61441C2F2000161
:102460000020086040F2C820C2F200000068006B43
:1024700003904FF0A530029003980068B0F1A53F9B
:1024800012D1FFE703984068B0F1A53F0CD1FFE7F8
:1024900003988068B0F1A53F06D1FFE70398C068B4
:1024A000B0F1A53F0AD0FFE740F2C821C2F2000117
:1024B000086809683431FFF721FDFFE742F25070E8
:1024C000C2F2000000680190FFE7019800EB800174
:1024D00040F2E020C2F2000050F8210020B9FFE7EE
:1024E000019801380190F0E7019800EB800140F27B
:1024F000E020C2F2000000EB8100009000994868E3
:1025000040684860009948680831884205D1FFE773
:102510000099486840684860FFE700984068C068D4
:1025200040F2C821C2F200010860019842F25071E5
:10253000C2F200010860FFE704B080BD80B582B040
:102540004EF62051CEF20001086840F47F0008608A
:10255000086840F07F400860FFF7B8FD40F20401D2
:10256000C2F20001002001900860FFF71FF9FFF799
:1025700063FFFFF7F3FA019802B080BD80B582B027
:102580004FF0100080F31188BFF36F8FBFF34F8FB0
:10259000009000F06BFC40B1FFE74EF60451CEF224
:1025A00000014FF080500860FFE700200190019883
:1025B00080F3118802B080BD80B584B08DF80F0023
:1025C00001200190002100919DF80F2000F022F8D9
:1025D00002900298FEF712FF029804B080BD00003E
:1025E00080B586B08DF8170004910120029000227A
:1025F00001929DF81710049BEC46CCF80010114690
:1026000000F034F803900398FEF7F8FE039806B044
:1026100080BD000080B588B0079006918DF8172026
:10262000079806994843039003985030FFF712FB30
:1026300004900498B0B1FFE70498029002985030DB
:1026400002900499002081F8460007980699029AA2
:102650009DF81730DDF810C0EE46CEF800C0FEF74A
:10266000E3FE00E0FFE7049808B080BD80B588B0C5
:1026700084460A98CDF81CC00691059204938DF803
:102680000F0004980290029888B1FFE70299012098
:1026900081F8460007980699059A9DF80F30DDF8F5
:1026A00008C0EE46CEF800C0FEF7BEFE00E0FFE731
:1026B000029808B080BD000080B584B003900291FC
:1026C00003980190FFF794FC01990B68C86B0A6CA2
:1026D00000FB023088600199002088630199086836
:1026E000486001990B68C86B0A6C013800FB023026
:1026F000C8600199FF2081F84400019981F84500E4
:102700000298D0B9FFE701980069A0B1FFE70198EE
:10271000103000F057FD60B1FFE74EF60451CEF2E5
:1027200000014FF080500860BFF34F8FBFF36F8FF1
:1027300000E0FFE700E0FFE708E001981030FFF756
:10274000E3FB01982430FFF7DFFBFFE7FFF768FCAE
:10275000012004B080BD000080B58AB008900791C8
:10276000069205930020049008980090FFE7FFF779
:102770003FFC0098806B0099C96B884204D3FFE747
:102780000598022834D1FFE700980799059AFEF7CB
:1027900003FD03900098406AA0B1FFE70098243041
:1027A00000F010FD60B1FFE74EF60451CEF20001DB
:1027B0004FF080500860BFF34F8FBFF36F8F00E082
:1027C000FFE710E0039860B1FFE74EF60451CEF248
:1027D00000014FF080500860BFF34F8FBFF36F8F41
:1027E00000E0FFE7FFE7FFF71BFC0120099065E031
:1027F000069828B9FFE7FFF713FC002009905DE079
:10280000049830B9FFE701A8FFF7ECFC0120049021
:1028100000E0FFE7FFE7FFE7FFF702FCFFF704FE3A
:10282000FFF7E6FB009890F94400013028B9FFE774
:102830000099002081F84400FFE7009890F94500D6
:10284000013028B9FFE70099002081F84500FFE733
:10285000FFF7E6FB01A806A900F00EFA28BBFFE788
:102860000098FEF78BFFC8B1FFE70098103006997B
:10287000FFF7D2FC0098FFF795F900F0FDFC60B976
:10288000FFE74EF60451CEF200014FF08050086091
:10289000BFF34F8FBFF36F8FFFE705E00098FFF79F
:1028A00081F900F0E9FCFFE707E00098FFF77AF90B
:1028B00000F0E2FC0020099000E058E709980AB017
:1028C00080BD000080B58CB00890079106920593FA
:1028D00008980290EFF311814FF0100080F31188F7
:1028E000BFF36F8FBFF34F8F0A9109900A9803903F
:1028F0000298806B0299C96B884204D3FFE7059860
:10290000022833D1FFE7029890F845008DF80700C0
:102910000298806B009002980799059AFEF73CFC9C
:102920009DF907000130B8B9FFE70298406A88B105
:10293000FFE70298243000F045FC48B1FFE7069815
:1029400020B1FFE706990120086000E0FFE700E002
:10295000FFE700E0FFE706E09DF80700013002997D
:1029600081F84500FFE70120049002E00020049078
:10297000FFE703980B900B9880F3118804980CB034
:1029800080BD000080B58AB00890079106920020B3
:10299000059008980290FFE7FFF72AFB0298806BEA
:1029A0000190019830B3FFE702980799FEF7D2FB38
:1029B000019801380299886302980069A0B1FFE785
:1029C0000298103000F0FEFB60B1FFE74EF60451B4
:1029D000CEF200014FF080500860BFF34F8FBFF37D
:1029E0006F8F00E0FFE700E0FFE7FFF719FB012032
:1029F00009906DE0069828B9FFE7FFF711FB00206A
:102A0000099065E0059830B9FFE703A8FFF7EAFBF6
:102A10000120059000E0FFE7FFE7FFE7FFF700FB7D
:102A2000FFF702FDFFF7E4FA029890F94400013045
:102A300028B9FFE70299002081F84400FFE70298D7
:102A400090F94500013028B9FFE70299002081F88C
:102A50004500FFE7FFF7E4FA03A806A900F00CF928
:102A600030BBFFE70298FEF775FED0B1FFE7029892
:102A700024300699FFF7D0FB0298FFF793F800F097
:102A8000FBFB60B9FFE74EF60451CEF200014FF0B8
:102A900080500860BFF34F8FBFF36F8F00E0FFE7F8
:102AA00005E00298FFF77EF800F0E6FBFFE70EE096
:102AB0000298FFF777F800F0DFFB0298FEF74AFE76
:102AC00018B1FFE70020099002E0FFE7FFE763E7A6
:102AD00009980AB080BD000080B58AB008900791BF
:102AE00000200690089903910290FFE7FFF780FA13
:102AF0000398806B0190019860B3FFE7019801385B
:102B0000039988630398006828B9FFE7FFF768F91D
:102B10000399886000E0FFE703980069A0B1FFE730
:102B20000398103000F04EFB60B1FFE74EF6045101
:102B3000CEF200014FF080500860BFF34F8FBFF31B
:102B40006F8F00E0FFE700E0FFE7FFF769FA012081
:102B500009908DE0079828B9FFE7FFF761FA002098
:102B6000099085E0069830B9FFE704A8FFF73AFB23
:102B70000120069000E0FFE7FFE7FFE7FFF750FACC
:102B8000FFF752FCFFF734FA039890F94400013044
:102B900028B9FFE70399002081F84400FFE7039874
:102BA00090F94500013028B9FFE70399002081F82A
:102BB0004500FFE7FFF734FA04A807A900F05CF826
:102BC000A8BBFFE70398FEF7C5FD48B3FFE70398EE
:102BD000006850B9FFE7FFF70BFA0398806800F030
:102BE00069FA0290FFF71CFA00E0FFE7039824302F
:102BF0000799FFF711FB0398FEF7D4FF00F03CFBA9
:102C000060B9FFE74EF60451CEF200014FF080505C
:102C10000860BFF34F8FBFF36F8F00E0FFE705E061
:102C20000398FEF7BFFF00F027FBFFE71FE00398C4
:102C3000FEF7B8FF00F020FB0398FEF78BFDA0B174
:102C4000FFE7029870B1FFE7FFF7D2F90398FEF7AC
:102C500027FB0090039880680099FFF70DFBFFF7B2
:102C6000DFF9FFE70020099002E0FFE7FFE73DE71B
:102C700009980AB080BD000080B586B00590049127
:102C8000FFF7B6F942F60840C2F200000068029071
:102C9000029805994968401A01900498006801302B
:102CA00018B9FFE7002003902BE042F6B030C2F2E3
:102CB0000000006805990968884209D0FFE702987A
:102CC00005994968884203D3FFE70120039017E084
:102CD00001980499096888420BD2FFE7019A049988
:102CE0000868801A08600598FFF77CFA00200390B6
:102CF00005E004990020086001200390FFE7FFE74A
:102D0000FFE7FFF78DF9039806B080BD70B58CB072
:102D1000DDF844C0DDF840C00B900A91ADF82620E4
:102D20000893BDF826008000FEF794FF05900598F3
:102D300080B1FFE75C20FEF78DFF0790079820B178
:102D4000FFE705980799086303E00598FFF77CF90A
:102D5000FFE702E000200790FFE70798F0B1FFE7E8
:102D60000798002680F859600B980A99BDF826202C
:102D7000089BDDF840C0119C079DEE46CEF80C6024
:102D8000CEF80850CEF80440CEF800C0FEF770FB35
:102D90000798FEF7DFF80120069003E04FF0FF30C0
:102DA0000690FFE706980CB070BD0000B0B58AB081
:102DB000DDF840C0DDF83CC0DDF838C0099008916E
:102DC00007920693109820B3FFE70F9808B3FFE728
:102DD000109805900F98059908630599022081F8CD
:102DE000590009980899079A069BDDF838C0059C98
:102DF000EE460025CEF80C50CEF8084004ACCEF8D4
:102E00000440CEF800C0FEF733FB0598FEF7A2F8A9
:102E100002E000200490FFE704980AB0B0BD000073
:102E200081B042F6D430C2F20000006818B9FFE762
:102E3000012000900DE042F24870C2F200000068EC
:102E400018B9FFE70220009002E000200090FFE7A1
:102E5000FFE7009801B0704781B042F60840C2F227
:102E6000000000680090009801B0704780B586B0FF
:102E70000020039042F24870C2F20000006800286F
:102E800040F0B880FFE742F60841C2F2000108684E
:102E900001300290029808600298C0B9FFE740F242
:102EA000D022C2F200021068019040F2D821C2F292
:102EB0000001086810600198086042F6B031C2F263
:102EC0000001086801300860FEF7A6FD00E0FFE79A
:102ED000029842F6AC31C2F200010968884268D318
:102EE000FFE7FFE740F2D020C2F200000068006870
:102EF00040B9FFE742F6AC31C2F200014FF0FF30BB
:102F0000086055E040F2D020C2F200000068C068BE
:102F1000C06805900598406804900298049988421A
:102F200007D2FFE7049842F6AC31C2F20001086014
:102F30003EE0FFE705980430FEF790FF0598806AB1
:102F400028B1FFE705981830FEF788FF00E0FFE79B
:102F50000598C06A42F25071C2F2000109688842C5
:102F600008D9FFE70598C06A42F25071C2F2000129
:102F70000860FFE70599C86A00EB800240F2E02094
:102F8000C2F2000000EB82000431FFF713F805984D
:102F9000C06A40F2C821C2F200010968C96A8842C9
:102FA00003D3FFE70120039000E0FFE7FFE799E785
:102FB000FFE740F2C820C2F200000068C06A00EBE0
:102FC000800140F2E020C2F2000050F82100022807
:102FD00003D3FFE70120039000E0FFE742F614402F
:102FE000C2F20000006818B1FFE70120039000E082
:102FF000FFE707E042F6BC31C2F200010868013089
:103000000860FFE7039806B080BD000080B584B07B
:10301000039003980290002001900398002844D068
:10302000FFE70299086D013808650299C86AC96C02
:10303000884238D0FFE70298006D90BBFFE7029806
:103040000430FEF70BFF08B9FFE700E0FFE7029945
:10305000C86CC8620299C86AC0F1380088610298D9
:10306000C06A42F25071C2F200010968884208D970
:10307000FFE70298C06A42F25071C2F20001086094
:10308000FFE70299C86A00EB800240F2E020C2F23A
:10309000000000EB82000431FEF78CFF012001905C
:1030A00000E0FFE700E0FFE700E0FFE7019804B081
:1030B00080BD000080B584B003900398029000208A
:1030C00001900398002878D0FFE70298C06A40F288
:1030D000C821C2F200010968C96A88425CD2FFE7D0
:1030E0000298C07E000600280BD4FFE740F2C820FB
:1030F000C2F200000068C06AC0F13800029988611D
:1031000000E0FFE702994869C96A01EB810240F2D9
:10311000E021C2F2000101EB8201884230D1FFE7D9
:1031200002980430FEF79AFE08B9FFE700E0FFE7D7
:1031300040F2C820C2F200000068C06A0299C8626A
:103140000298C06A42F25071C2F2000109688842D6
:1031500008D9FFE70298C06A42F25071C2F200013A
:103160000860FFE70299C86A00EB800240F2E020A5
:10317000C2F2000000EB82000431FEF71BFF08E002
:1031800040F2C820C2F200000068C06A0299C8621A
:10319000FFE7012001900FE00298C06C40F2C821C7
:1031A000C2F200010968C96A884203D2FFE7012020
:1031B000019000E0FFE7FFE700E0FFE7019804B0BF
:1031C00080BD000080B584B003900398C068C068DB
:1031D000029002981830FEF741FE42F24870C2F2A7
:1031E0000000006820BBFFE702980430FEF736FEBF
:1031F0000298C06A42F25071C2F200010968884226
:1032000008D9FFE70298C06A42F25071C2F2000189
:103210000860FFE70299C86A00EB800240F2E020F4
:10322000C2F2000000EB82000431FEF7C3FE09E0A9
:10323000029800F1180142F6C030C2F20000FEF719
:10324000B9FEFFE70298C06A40F2C821C2F200014D
:103250000968C96A884208D9FFE70120019042F64F
:103260001441C2F20001086002E000200190FFE773
:10327000019804B080BD000080B584B000200390A8
:103280000290FEF7B5FE42F24870C2F200000168FB
:10329000013901600068002840F09980FFE742F2A0
:1032A0004070C2F200000068002800F08F80FFE745
:1032B000FFE742F6C030C2F200000068002842D0AA
:1032C000FFE742F6C030C2F20000C068C068039059
:1032D00003981830FEF7C2FD03980430FEF7BEFDD8
:1032E0000398C06A42F25071C2F200010968884234
:1032F00008D9FFE70398C06A42F25071C2F2000198
:103300000860FFE70399C86A00EB800240F2E02002
:10331000C2F2000000EB82000431FEF74BFE03987E
:10332000C06A40F2C821C2F200010968C96A884235
:1033300007D3FFE742F61441C2F200010120086002
:1033400000E0FFE7B5E7039818B1FFE7FEF764FB7D
:10335000FFE742F6BC30C2F200000068019001981D
:10336000E0B1FFE7FFE7FFF781FD38B1FFE742F685
:103370001441C2F200010120086000E0FFE701985B
:1033800001380190FFE701980028ECD1FFE742F6F1
:10339000BC31C2F200010020086000E0FFE742F605
:1033A0001440C2F20000006870B1FFE701200290F3
:1033B0004EF60451CEF200014FF080500860BFF38A
:1033C0004F8FBFF36F8F00E0FFE7FFE700E0FFE7FD
:1033D000FEF726FE029804B080BD000080B588B0DC
:1033E00000200790FDF748FE42F60C40C2F20000B4
:1033F000006858B3FFE7002003900690059006A8E8
:1034000005A904AAFEF764FD039B049A0598DDF85C
:1034100018C06946C1F808C048602820086041F615
:103420008530C0F6000043F20B51C0F60001FFF7F3
:10343000BDFC014642F61040C2F200000160006887
:1034400018B1FFE701200790FFE700E0FFE70798CA
:1034500008B080BD80B58AB0DDF830C00990089111
:10346000079206930020059042F60C40C2F200003D
:103470000068A8B3FFE708980190079802900998A0
:103480000390089805281EDCFFE7FFF7C9FC022817
:103490000CD1FFE742F60C40C2F2000000680C9A23
:1034A00001A90023FFF758F905900BE042F60C4004
:1034B000C2F20000006801A900231A46FFF74CF988
:1034C0000590FFE70BE042F60C40C2F200000068F6
:1034D000069A01A90023FFF7F5F90590FFE700E040
:1034E000FFE705980AB080BD4C45445F5441534BFB
:1034F00000424C494E4B5F5441534B004354524C95
:103500005F5441534B0049444C4500546D72205365
:103510007663000038350008000000200800000035
:10352000500100084035000808000020103200005B
:10353000700100080000000000A24A04AAAAAAAA7A
:04000005080000ED02
:00000001FF
